{
  "contractName": "EventContract",
  "abi": [
    {
      "inputs": [],
      "payable": true,
      "stateMutability": "payable",
      "type": "constructor"
    },
    {
      "constant": true,
      "inputs": [
        {
          "internalType": "uint256",
          "name": "",
          "type": "uint256"
        }
      ],
      "name": "allCandidates",
      "outputs": [
        {
          "internalType": "string",
          "name": "eid",
          "type": "string"
        },
        {
          "internalType": "string",
          "name": "candidateCnic",
          "type": "string"
        },
        {
          "internalType": "string",
          "name": "position",
          "type": "string"
        },
        {
          "internalType": "string",
          "name": "party",
          "type": "string"
        },
        {
          "internalType": "uint256",
          "name": "votes",
          "type": "uint256"
        }
      ],
      "payable": false,
      "stateMutability": "view",
      "type": "function"
    },
    {
      "constant": true,
      "inputs": [
        {
          "internalType": "uint256",
          "name": "",
          "type": "uint256"
        }
      ],
      "name": "allEvents",
      "outputs": [
        {
          "internalType": "string",
          "name": "eid",
          "type": "string"
        },
        {
          "internalType": "string",
          "name": "eventName",
          "type": "string"
        },
        {
          "internalType": "string",
          "name": "stateOfEvent",
          "type": "string"
        },
        {
          "internalType": "string",
          "name": "startTime",
          "type": "string"
        },
        {
          "internalType": "string",
          "name": "endTime",
          "type": "string"
        }
      ],
      "payable": false,
      "stateMutability": "view",
      "type": "function"
    },
    {
      "constant": true,
      "inputs": [
        {
          "internalType": "uint256",
          "name": "",
          "type": "uint256"
        }
      ],
      "name": "allParties",
      "outputs": [
        {
          "internalType": "string",
          "name": "eid",
          "type": "string"
        },
        {
          "internalType": "string",
          "name": "partyName",
          "type": "string"
        },
        {
          "internalType": "string",
          "name": "partyCode",
          "type": "string"
        }
      ],
      "payable": false,
      "stateMutability": "view",
      "type": "function"
    },
    {
      "constant": true,
      "inputs": [
        {
          "internalType": "uint256",
          "name": "",
          "type": "uint256"
        }
      ],
      "name": "allPositions",
      "outputs": [
        {
          "internalType": "string",
          "name": "eid",
          "type": "string"
        },
        {
          "internalType": "string",
          "name": "positionName",
          "type": "string"
        }
      ],
      "payable": false,
      "stateMutability": "view",
      "type": "function"
    },
    {
      "constant": true,
      "inputs": [
        {
          "internalType": "uint256",
          "name": "",
          "type": "uint256"
        }
      ],
      "name": "allUsers",
      "outputs": [
        {
          "internalType": "string",
          "name": "eid",
          "type": "string"
        },
        {
          "internalType": "string",
          "name": "userCnic",
          "type": "string"
        },
        {
          "internalType": "string",
          "name": "userPhone",
          "type": "string"
        },
        {
          "internalType": "string",
          "name": "userFullName",
          "type": "string"
        },
        {
          "internalType": "string",
          "name": "dateOfBirth",
          "type": "string"
        },
        {
          "internalType": "string",
          "name": "gender",
          "type": "string"
        },
        {
          "internalType": "string",
          "name": "dateOfCnicExpiry",
          "type": "string"
        }
      ],
      "payable": false,
      "stateMutability": "view",
      "type": "function"
    },
    {
      "constant": true,
      "inputs": [
        {
          "internalType": "string",
          "name": "",
          "type": "string"
        }
      ],
      "name": "eIdToEvent",
      "outputs": [
        {
          "internalType": "string",
          "name": "eid",
          "type": "string"
        },
        {
          "internalType": "string",
          "name": "eventName",
          "type": "string"
        },
        {
          "internalType": "string",
          "name": "stateOfEvent",
          "type": "string"
        },
        {
          "internalType": "string",
          "name": "startTime",
          "type": "string"
        },
        {
          "internalType": "string",
          "name": "endTime",
          "type": "string"
        }
      ],
      "payable": false,
      "stateMutability": "view",
      "type": "function"
    },
    {
      "constant": true,
      "inputs": [
        {
          "internalType": "string",
          "name": "",
          "type": "string"
        },
        {
          "internalType": "uint256",
          "name": "",
          "type": "uint256"
        }
      ],
      "name": "eIdToParties",
      "outputs": [
        {
          "internalType": "string",
          "name": "",
          "type": "string"
        }
      ],
      "payable": false,
      "stateMutability": "view",
      "type": "function"
    },
    {
      "constant": true,
      "inputs": [
        {
          "internalType": "string",
          "name": "",
          "type": "string"
        },
        {
          "internalType": "uint256",
          "name": "",
          "type": "uint256"
        }
      ],
      "name": "eIdToPosition",
      "outputs": [
        {
          "internalType": "string",
          "name": "",
          "type": "string"
        }
      ],
      "payable": false,
      "stateMutability": "view",
      "type": "function"
    },
    {
      "constant": true,
      "inputs": [
        {
          "internalType": "string",
          "name": "",
          "type": "string"
        },
        {
          "internalType": "uint256",
          "name": "",
          "type": "uint256"
        }
      ],
      "name": "eIdToUsers",
      "outputs": [
        {
          "internalType": "string",
          "name": "",
          "type": "string"
        }
      ],
      "payable": false,
      "stateMutability": "view",
      "type": "function"
    },
    {
      "constant": false,
      "inputs": [
        {
          "internalType": "string",
          "name": "newEventName",
          "type": "string"
        },
        {
          "internalType": "string",
          "name": "newStateOfEvent",
          "type": "string"
        },
        {
          "internalType": "string",
          "name": "newStartTime",
          "type": "string"
        },
        {
          "internalType": "string",
          "name": "newEndTime",
          "type": "string"
        },
        {
          "components": [
            {
              "internalType": "string",
              "name": "eid",
              "type": "string"
            },
            {
              "internalType": "string",
              "name": "userCnic",
              "type": "string"
            },
            {
              "internalType": "string",
              "name": "userPhone",
              "type": "string"
            },
            {
              "internalType": "string",
              "name": "userFullName",
              "type": "string"
            },
            {
              "internalType": "string",
              "name": "dateOfBirth",
              "type": "string"
            },
            {
              "internalType": "string",
              "name": "gender",
              "type": "string"
            },
            {
              "internalType": "string",
              "name": "dateOfCnicExpiry",
              "type": "string"
            }
          ],
          "internalType": "struct EventContract.User[]",
          "name": "userList",
          "type": "tuple[]"
        },
        {
          "components": [
            {
              "internalType": "string",
              "name": "eid",
              "type": "string"
            },
            {
              "internalType": "string",
              "name": "positionName",
              "type": "string"
            }
          ],
          "internalType": "struct EventContract.Position[]",
          "name": "positionList",
          "type": "tuple[]"
        },
        {
          "components": [
            {
              "internalType": "string",
              "name": "eid",
              "type": "string"
            },
            {
              "internalType": "string",
              "name": "partyName",
              "type": "string"
            },
            {
              "internalType": "string",
              "name": "partyCode",
              "type": "string"
            }
          ],
          "internalType": "struct EventContract.Party[]",
          "name": "partyList",
          "type": "tuple[]"
        },
        {
          "components": [
            {
              "internalType": "string",
              "name": "eid",
              "type": "string"
            },
            {
              "internalType": "string",
              "name": "candidateCnic",
              "type": "string"
            },
            {
              "internalType": "string",
              "name": "position",
              "type": "string"
            },
            {
              "internalType": "string",
              "name": "party",
              "type": "string"
            },
            {
              "internalType": "uint256",
              "name": "votes",
              "type": "uint256"
            }
          ],
          "internalType": "struct EventContract.Candidate[]",
          "name": "candidatesList",
          "type": "tuple[]"
        }
      ],
      "name": "createEvent",
      "outputs": [],
      "payable": false,
      "stateMutability": "nonpayable",
      "type": "function"
    },
    {
      "constant": false,
      "inputs": [],
      "name": "getEventData",
      "outputs": [
        {
          "components": [
            {
              "internalType": "string",
              "name": "eid",
              "type": "string"
            },
            {
              "internalType": "string",
              "name": "eventName",
              "type": "string"
            },
            {
              "internalType": "string",
              "name": "stateOfEvent",
              "type": "string"
            },
            {
              "internalType": "string",
              "name": "startTime",
              "type": "string"
            },
            {
              "internalType": "string",
              "name": "endTime",
              "type": "string"
            }
          ],
          "internalType": "struct EventContract.Event[]",
          "name": "",
          "type": "tuple[]"
        }
      ],
      "payable": false,
      "stateMutability": "nonpayable",
      "type": "function"
    }
  ],
  "bytecode": "0x60806040526200000e62002f26565b6040518060e001604052806040518060400160405280600181526020017f610000000000000000000000000000000000000000000000000000000000000081525081526020016040518060400160405280600e81526020017f343231303131323334353637393000000000000000000000000000000000000081525081526020016040518060400160405280600d81526020017f2b3932333232323131313232320000000000000000000000000000000000000081525081526020016040518060400160405280600981526020017f4a6f686e204b656e65000000000000000000000000000000000000000000000081525081526020016040518060400160405280600381526020017f313233000000000000000000000000000000000000000000000000000000000081525081526020016040518060400160405280600181526020017f4d0000000000000000000000000000000000000000000000000000000000000081525081526020016040518060400160405280600381526020017f31323300000000000000000000000000000000000000000000000000000000008152508152509050620001c062002f26565b6040518060e001604052806040518060400160405280600181526020017f620000000000000000000000000000000000000000000000000000000000000081525081526020016040518060400160405280600e81526020017f343231303131323334353637393100000000000000000000000000000000000081525081526020016040518060400160405280600d81526020017f2b3932333232323131313232330000000000000000000000000000000000000081525081526020016040518060400160405280600d81526020017f4d69636861656c206c657769730000000000000000000000000000000000000081525081526020016040518060400160405280600381526020017f313234000000000000000000000000000000000000000000000000000000000081525081526020016040518060400160405280600181526020017f460000000000000000000000000000000000000000000000000000000000000081525081526020016040518060400160405280600381526020017f313234000000000000000000000000000000000000000000000000000000000081525081525090506200037262002f26565b6040518060e001604052806040518060400160405280600181526020017f630000000000000000000000000000000000000000000000000000000000000081525081526020016040518060400160405280600e81526020017f343231303131323334353637393200000000000000000000000000000000000081525081526020016040518060400160405280600d81526020017f2b3932333232323131313232340000000000000000000000000000000000000081525081526020016040518060400160405280600981526020017f4a6f686e2043656e61000000000000000000000000000000000000000000000081525081526020016040518060400160405280600381526020017f313235000000000000000000000000000000000000000000000000000000000081525081526020016040518060400160405280600181526020017f540000000000000000000000000000000000000000000000000000000000000081525081526020016040518060400160405280600381526020017f313235000000000000000000000000000000000000000000000000000000000081525081525090506200052462002f26565b6040518060e001604052806040518060400160405280600181526020017f640000000000000000000000000000000000000000000000000000000000000081525081526020016040518060400160405280600e81526020017f343231303131323334353637393300000000000000000000000000000000000081525081526020016040518060400160405280600d81526020017f2b3932333232323131313232350000000000000000000000000000000000000081525081526020016040518060400160405280600f81526020017f4d69636861656c204a61636b736f6e000000000000000000000000000000000081525081526020016040518060400160405280600381526020017f313235000000000000000000000000000000000000000000000000000000000081525081526020016040518060400160405280600181526020017f4d0000000000000000000000000000000000000000000000000000000000000081525081526020016040518060400160405280600381526020017f31323500000000000000000000000000000000000000000000000000000000008152508152509050620006d662002f26565b6040518060e001604052806040518060400160405280600181526020017f650000000000000000000000000000000000000000000000000000000000000081525081526020016040518060400160405280600e81526020017f343231303131323334353637393400000000000000000000000000000000000081525081526020016040518060400160405280600d81526020017f2b3932333232323131313232360000000000000000000000000000000000000081525081526020016040518060400160405280600d81526020017f456c697a6162657468204b696e0000000000000000000000000000000000000081525081526020016040518060400160405280600381526020017f313235000000000000000000000000000000000000000000000000000000000081525081526020016040518060400160405280600181526020017f460000000000000000000000000000000000000000000000000000000000000081525081526020016040518060400160405280600381526020017f31323500000000000000000000000000000000000000000000000000000000008152508152509050600985908060018154018082558091505090600182039060005260206000209060070201600090919290919091506000820151816000019080519060200190620008ca92919062002f63565b506020820151816001019080519060200190620008e992919062002f63565b5060408201518160020190805190602001906200090892919062002f63565b5060608201518160030190805190602001906200092792919062002f63565b5060808201518160040190805190602001906200094692919062002f63565b5060a08201518160050190805190602001906200096592919062002f63565b5060c08201518160060190805190602001906200098492919062002f63565b50505050600984908060018154018082558091505090600182039060005260206000209060070201600090919290919091506000820151816000019080519060200190620009d492919062002f63565b506020820151816001019080519060200190620009f392919062002f63565b50604082015181600201908051906020019062000a1292919062002f63565b50606082015181600301908051906020019062000a3192919062002f63565b50608082015181600401908051906020019062000a5092919062002f63565b5060a082015181600501908051906020019062000a6f92919062002f63565b5060c082015181600601908051906020019062000a8e92919062002f63565b5050505060098390806001815401808255809150509060018203906000526020600020906007020160009091929091909150600082015181600001908051906020019062000ade92919062002f63565b50602082015181600101908051906020019062000afd92919062002f63565b50604082015181600201908051906020019062000b1c92919062002f63565b50606082015181600301908051906020019062000b3b92919062002f63565b50608082015181600401908051906020019062000b5a92919062002f63565b5060a082015181600501908051906020019062000b7992919062002f63565b5060c082015181600601908051906020019062000b9892919062002f63565b5050505060098290806001815401808255809150509060018203906000526020600020906007020160009091929091909150600082015181600001908051906020019062000be892919062002f63565b50602082015181600101908051906020019062000c0792919062002f63565b50604082015181600201908051906020019062000c2692919062002f63565b50606082015181600301908051906020019062000c4592919062002f63565b50608082015181600401908051906020019062000c6492919062002f63565b5060a082015181600501908051906020019062000c8392919062002f63565b5060c082015181600601908051906020019062000ca292919062002f63565b5050505060098190806001815401808255809150509060018203906000526020600020906007020160009091929091909150600082015181600001908051906020019062000cf292919062002f63565b50602082015181600101908051906020019062000d1192919062002f63565b50604082015181600201908051906020019062000d3092919062002f63565b50606082015181600301908051906020019062000d4f92919062002f63565b50608082015181600401908051906020019062000d6e92919062002f63565b5060a082015181600501908051906020019062000d8d92919062002f63565b5060c082015181600601908051906020019062000dac92919062002f63565b5050505062000dba62002fea565b60405180604001604052806040518060400160405280600181526020017f610000000000000000000000000000000000000000000000000000000000000081525081526020016040518060400160405280600981526020017f707265736964656e7400000000000000000000000000000000000000000000008152508152509050600a8190806001815401808255809150509060018203906000526020600020906002020160009091929091909150600082015181600001908051906020019062000e8792919062002f63565b50602082015181600101908051906020019062000ea692919062002f63565b5050505062000eb462003004565b60405180606001604052806040518060400160405280600181526020017f610000000000000000000000000000000000000000000000000000000000000081525081526020016040518060400160405280600d81526020017f70656f706c65732070617274790000000000000000000000000000000000000081525081526020016040518060400160405280600281526020017f7070000000000000000000000000000000000000000000000000000000000000815250815250905062000f7a62003004565b60405180606001604052806040518060400160405280600181526020017f610000000000000000000000000000000000000000000000000000000000000081525081526020016040518060400160405280600981526020017f64656d6f6372617473000000000000000000000000000000000000000000000081525081526020016040518060400160405280600381526020017f64647300000000000000000000000000000000000000000000000000000000008152508152509050600b829080600181540180825580915050906001820390600052602060002090600302016000909192909190915060008201518160000190805190602001906200108292919062002f63565b506020820151816001019080519060200190620010a192919062002f63565b506040820151816002019080519060200190620010c092919062002f63565b50505050600b819080600181540180825580915050906001820390600052602060002090600302016000909192909190915060008201518160000190805190602001906200111092919062002f63565b5060208201518160010190805190602001906200112f92919062002f63565b5060408201518160020190805190602001906200114e92919062002f63565b505050506200115c62003025565b6040518060a001604052806040518060400160405280600181526020017f310000000000000000000000000000000000000000000000000000000000000081525081526020016040518060400160405280600e81526020017f343231303131323334353637393000000000000000000000000000000000000081525081526020016040518060400160405280600981526020017f707265736964656e74000000000000000000000000000000000000000000000081525081526020016040518060400160405280600381526020017f70707000000000000000000000000000000000000000000000000000000000008152508152602001600081525090506200126462003025565b6040518060a001604052806040518060400160405280600181526020017f310000000000000000000000000000000000000000000000000000000000000081525081526020016040518060400160405280600e81526020017f343231303131323334353637393100000000000000000000000000000000000081525081526020016040518060400160405280600981526020017f707265736964656e74000000000000000000000000000000000000000000000081525081526020016040518060400160405280600381526020017f6464730000000000000000000000000000000000000000000000000000000000815250815260200160008152509050600c82908060018154018082558091505090600182039060005260206000209060050201600090919290919091506000820151816000019080519060200190620013ae92919062002f63565b506020820151816001019080519060200190620013cd92919062002f63565b506040820151816002019080519060200190620013ec92919062002f63565b5060608201518160030190805190602001906200140b92919062002f63565b5060808201518160040155505050600c819080600181540180825580915050906001820390600052602060002090600502016000909192909190915060008201518160000190805190602001906200146592919062002f63565b5060208201518160010190805190602001906200148492919062002f63565b506040820151816002019080519060200190620014a392919062002f63565b506060820151816003019080519060200190620014c292919062002f63565b50608082015181600401555050506200218a6040518060400160405280601081526020017f55534120507265736564656e7469616c000000000000000000000000000000008152506040518060400160405280600a81526020017f696e50726f6772657373000000000000000000000000000000000000000000008152506040518060400160405280601781526020017f323032322d30312d31325430333a34323a30302e3030300000000000000000008152506040518060400160405280601781526020017f323032322d30312d31365430303a30393a30302e3030300000000000000000008152506009805480602002602001604051908101604052809291908181526020016000905b8282101562001a8c57838290600052602060002090600702016040518060e0016040529081600082018054600181600116156101000203166002900480601f0160208091040260200160405190810160405280929190818152602001828054600181600116156101000203166002900480156200168f5780601f1062001663576101008083540402835291602001916200168f565b820191906000526020600020905b8154815290600101906020018083116200167157829003601f168201915b50505050508152602001600182018054600181600116156101000203166002900480601f016020809104026020016040519081016040528092919081815260200182805460018160011615610100020316600290048015620017355780601f10620017095761010080835404028352916020019162001735565b820191906000526020600020905b8154815290600101906020018083116200171757829003601f168201915b50505050508152602001600282018054600181600116156101000203166002900480601f016020809104026020016040519081016040528092919081815260200182805460018160011615610100020316600290048015620017db5780601f10620017af57610100808354040283529160200191620017db565b820191906000526020600020905b815481529060010190602001808311620017bd57829003601f168201915b50505050508152602001600382018054600181600116156101000203166002900480601f016020809104026020016040519081016040528092919081815260200182805460018160011615610100020316600290048015620018815780601f10620018555761010080835404028352916020019162001881565b820191906000526020600020905b8154815290600101906020018083116200186357829003601f168201915b50505050508152602001600482018054600181600116156101000203166002900480601f016020809104026020016040519081016040528092919081815260200182805460018160011615610100020316600290048015620019275780601f10620018fb5761010080835404028352916020019162001927565b820191906000526020600020905b8154815290600101906020018083116200190957829003601f168201915b50505050508152602001600582018054600181600116156101000203166002900480601f016020809104026020016040519081016040528092919081815260200182805460018160011615610100020316600290048015620019cd5780601f10620019a157610100808354040283529160200191620019cd565b820191906000526020600020905b815481529060010190602001808311620019af57829003601f168201915b50505050508152602001600682018054600181600116156101000203166002900480601f01602080910402602001604051908101604052809291908181526020018280546001816001161561010002031660029004801562001a735780601f1062001a475761010080835404028352916020019162001a73565b820191906000526020600020905b81548152906001019060200180831162001a5557829003601f168201915b50505050508152505081526020019060010190620015ce565b50505050600a805480602002602001604051908101604052809291908181526020016000905b8282101562001c325783829060005260206000209060020201604051806040016040529081600082018054600181600116156101000203166002900480601f01602080910402602001604051908101604052809291908181526020018280546001816001161561010002031660029004801562001b735780601f1062001b475761010080835404028352916020019162001b73565b820191906000526020600020905b81548152906001019060200180831162001b5557829003601f168201915b50505050508152602001600182018054600181600116156101000203166002900480601f01602080910402602001604051908101604052809291908181526020018280546001816001161561010002031660029004801562001c195780601f1062001bed5761010080835404028352916020019162001c19565b820191906000526020600020905b81548152906001019060200180831162001bfb57829003601f168201915b5050505050815250508152602001906001019062001ab2565b50505050600b805480602002602001604051908101604052809291908181526020016000905b8282101562001e7e5783829060005260206000209060030201604051806060016040529081600082018054600181600116156101000203166002900480601f01602080910402602001604051908101604052809291908181526020018280546001816001161561010002031660029004801562001d195780601f1062001ced5761010080835404028352916020019162001d19565b820191906000526020600020905b81548152906001019060200180831162001cfb57829003601f168201915b50505050508152602001600182018054600181600116156101000203166002900480601f01602080910402602001604051908101604052809291908181526020018280546001816001161561010002031660029004801562001dbf5780601f1062001d935761010080835404028352916020019162001dbf565b820191906000526020600020905b81548152906001019060200180831162001da157829003601f168201915b50505050508152602001600282018054600181600116156101000203166002900480601f01602080910402602001604051908101604052809291908181526020018280546001816001161561010002031660029004801562001e655780601f1062001e395761010080835404028352916020019162001e65565b820191906000526020600020905b81548152906001019060200180831162001e4757829003601f168201915b5050505050815250508152602001906001019062001c58565b50505050600c805480602002602001604051908101604052809291908181526020016000905b828210156200217a57838290600052602060002090600502016040518060a0016040529081600082018054600181600116156101000203166002900480601f01602080910402602001604051908101604052809291908181526020018280546001816001161561010002031660029004801562001f655780601f1062001f395761010080835404028352916020019162001f65565b820191906000526020600020905b81548152906001019060200180831162001f4757829003601f168201915b50505050508152602001600182018054600181600116156101000203166002900480601f0160208091040260200160405190810160405280929190818152602001828054600181600116156101000203166002900480156200200b5780601f1062001fdf576101008083540402835291602001916200200b565b820191906000526020600020905b81548152906001019060200180831162001fed57829003601f168201915b50505050508152602001600282018054600181600116156101000203166002900480601f016020809104026020016040519081016040528092919081815260200182805460018160011615610100020316600290048015620020b15780601f106200208557610100808354040283529160200191620020b1565b820191906000526020600020905b8154815290600101906020018083116200209357829003601f168201915b50505050508152602001600382018054600181600116156101000203166002900480601f016020809104026020016040519081016040528092919081815260200182805460018160011615610100020316600290048015620021575780601f106200212b5761010080835404028352916020019162002157565b820191906000526020600020905b8154815290600101906020018083116200213957829003601f168201915b505050505081526020016004820154815250508152602001906001019062001ea4565b505050506200219a60201b60201c565b5050505050505050505062003275565b600042604051602001620021af9190620031ed565b6040516020818303038152906040528051906020012060001c90506060620021dd8262002d5a60201b60201c565b9050620021e962003054565b8181600001819052508a81602001819052508981604001819052508881606001819052508781608001819052506001819080600181540180825580915050906001820390600052602060002090600502016000909192909190915060008201518160000190805190602001906200226292919062002f63565b5060208201518160010190805190602001906200228192919062002f63565b506040820151816002019080519060200190620022a092919062002f63565b506060820151816003019080519060200190620022bf92919062002f63565b506080820151816004019080519060200190620022de92919062002f63565b5050505080600083604051620022f59190620031d4565b908152602001604051809103902060008201518160000190805190602001906200232192919062002f63565b5060208201518160010190805190602001906200234092919062002f63565b5060408201518160020190805190602001906200235f92919062002f63565b5060608201518160030190805190602001906200237e92919062002f63565b5060808201518160040190805190602001906200239d92919062002f63565b5090505060008751905060008090505b818110156200289e57620023c062002f26565b83600001518160000181905250898281518110620023da57fe5b6020026020010151602001518160200181905250898281518110620023fb57fe5b60200260200101516040015181604001819052508982815181106200241c57fe5b60200260200101516060015181606001819052508982815181106200243d57fe5b60200260200101516080015181608001819052508982815181106200245e57fe5b602002602001015160a001518160a001819052508982815181106200247f57fe5b602002602001015160c001518160c001819052506000821415620026145760028460000151604051620024b39190620031bb565b9081526020016040518091039020816020015190806001815401808255809150509060018203906000526020600020016000909192909190915090805190602001906200250292919062003083565b50506003819080600181540180825580915050906001820390600052602060002090600702016000909192909190915060008201518160000190805190602001906200255092919062002f63565b5060208201518160010190805190602001906200256f92919062002f63565b5060408201518160020190805190602001906200258e92919062002f63565b506060820151816003019080519060200190620025ad92919062002f63565b506080820151816004019080519060200190620025cc92919062002f63565b5060a0820151816005019080519060200190620025eb92919062002f63565b5060c08201518160060190805190602001906200260a92919062002f63565b505050506200288f565b6000809050606060028660000151604051620026319190620031bb565b9081526020016040518091039020805480602002602001604051908101604052809291908181526020016000905b8282101562002721578382906000526020600020018054600181600116156101000203166002900480601f0160208091040260200160405190810160405280929190818152602001828054600181600116156101000203166002900480156200270c5780601f10620026e0576101008083540402835291602001916200270c565b820191906000526020600020905b815481529060010190602001808311620026ee57829003601f168201915b5050505050815260200190600101906200265f565b50505050905060008090505b81518110156200277a57620027618282815181106200274857fe5b6020026020010151856020015162002ec060201b60201c565b156200276c57600192505b80806001019150506200272d565b50816200288c57600383908060018154018082558091505090600182039060005260206000209060070201600090919290919091506000820151816000019080519060200190620027cd92919062002f63565b506020820151816001019080519060200190620027ec92919062002f63565b5060408201518160020190805190602001906200280b92919062002f63565b5060608201518160030190805190602001906200282a92919062002f63565b5060808201518160040190805190602001906200284992919062002f63565b5060a08201518160050190805190602001906200286892919062002f63565b5060c08201518160060190805190602001906200288792919062002f63565b505050505b50505b508080600101915050620023ad565b5060008751905060008090505b818110156200296a57620028be62002fea565b84600001518160000181905250898281518110620028d857fe5b60200260200101516020015181602001819052506005819080600181540180825580915050906001820390600052602060002090600202016000909192909190915060008201518160000190805190602001906200293892919062002f63565b5060208201518160010190805190602001906200295792919062002f63565b50505050508080600101915050620028ab565b5060008751905060008090505b8181101562002a76576200298a62003004565b85600001518160000181905250898281518110620029a457fe5b6020026020010151602001518160200181905250898281518110620029c557fe5b602002602001015160400151816040018190525060078190806001815401808255809150509060018203906000526020600020906003020160009091929091909150600082015181600001908051906020019062002a2592919062002f63565b50602082015181600101908051906020019062002a4492919062002f63565b50604082015181600201908051906020019062002a6392919062002f63565b5050505050808060010191505062002977565b5060008751905060008090505b8181101562002d485762002a9662003025565b8660000151816000018190525089828151811062002ab057fe5b602002602001015160200151816020018190525089828151811062002ad157fe5b602002602001015160400151816040018190525089828151811062002af257fe5b60200260200101516060015181606001819052506000816080018181525050600080905060606002896000015160405162002b2e9190620031bb565b9081526020016040518091039020805480602002602001604051908101604052809291908181526020016000905b8282101562002c1e578382906000526020600020018054600181600116156101000203166002900480601f01602080910402602001604051908101604052809291908181526020018280546001816001161561010002031660029004801562002c095780601f1062002bdd5761010080835404028352916020019162002c09565b820191906000526020600020905b81548152906001019060200180831162002beb57829003601f168201915b50505050508152602001906001019062002b5c565b50505050905060008090505b815181101562002c775762002c5e82828151811062002c4557fe5b6020026020010151856020015162002ec060201b60201c565b1562002c6957600192505b808060010191505062002c2a565b50811562002d375760088390806001815401808255809150509060018203906000526020600020906005020160009091929091909150600082015181600001908051906020019062002ccb92919062002f63565b50602082015181600101908051906020019062002cea92919062002f63565b50604082015181600201908051906020019062002d0992919062002f63565b50606082015181600301908051906020019062002d2892919062002f63565b50608082015181600401555050505b505050808060010191505062002a83565b50505050505050505050505050505050565b60608060286040519080825280601f01601f19166020018201604052801562002d925781602001600182028038833980820191505090505b50905060008090505b601481101562002eb65760008160130360080260020a8573ffffffffffffffffffffffffffffffffffffffff168162002dd057fe5b0460f81b9050600060108260f81c60ff168162002de957fe5b0460f81b905060008160f81c6010028360f81c0360f81b905062002e138262002ef060201b60201c565b85856002028151811062002e2357fe5b60200101907effffffffffffffffffffffffffffffffffffffffffffffffffffffffffffff1916908160001a90535062002e638162002ef060201b60201c565b85600186600202018151811062002e7657fe5b60200101907effffffffffffffffffffffffffffffffffffffffffffffffffffffffffffff1916908160001a905350505050808060010191505062002d9b565b5080915050919050565b6000815183511462002ed6576000905062002eea565b818051906020012083805190602001201490505b92915050565b6000600a8260f81c60ff16101562002f145760308260f81c0160f81b905062002f21565b60578260f81c0160f81b90505b919050565b6040518060e00160405280606081526020016060815260200160608152602001606081526020016060815260200160608152602001606081525090565b828054600181600116156101000203166002900490600052602060002090601f016020900481019282601f1062002fa657805160ff191683800117855562002fd7565b8280016001018555821562002fd7579182015b8281111562002fd657825182559160200191906001019062002fb9565b5b50905062002fe691906200310a565b5090565b604051806040016040528060608152602001606081525090565b60405180606001604052806060815260200160608152602001606081525090565b6040518060a0016040528060608152602001606081526020016060815260200160608152602001600081525090565b6040518060a0016040528060608152602001606081526020016060815260200160608152602001606081525090565b828054600181600116156101000203166002900490600052602060002090601f016020900481019282601f10620030c657805160ff1916838001178555620030f7565b82800160010185558215620030f7579182015b82811115620030f6578251825591602001919060010190620030d9565b5b5090506200310691906200310a565b5090565b6200312f91905b808211156200312b57600081600090555060010162003111565b5090565b90565b60006200313f8262003215565b6200314b818562003220565b93506200315d81856020860162003235565b80840191505092915050565b600062003176826200320a565b62003182818562003220565b93506200319481856020860162003235565b80840191505092915050565b620031b5620031af826200322b565b6200326b565b82525050565b6000620031c9828462003169565b915081905092915050565b6000620031e2828462003132565b915081905092915050565b6000620031fb8284620031a0565b60208201915081905092915050565b600081519050919050565b600081519050919050565b600081905092915050565b6000819050919050565b60005b838110156200325557808201518184015260208101905062003238565b8381111562003265576000848401525b50505050565b6000819050919050565b6137c080620032856000396000f3fe608060405234801561001057600080fd5b50600436106100a95760003560e01c806373756cc11161007157806373756cc11461019257806388f15991146101c6578063a2bdedf4146101e2578063ab50d98514610218578063bac0764e14610248578063fc60c8b314610279576100a9565b806316977226146100ae5780633bec5cff146100de5780634c55eb341461011257806360d505961461014257806366472f1c14610174575b600080fd5b6100c860048036036100c39190810190613037565b6102ad565b6040516100d59190613334565b60405180910390f35b6100f860048036036100f3919081019061308b565b610389565b6040516101099594939291906133d9565b60405180910390f35b61012c60048036036101279190810190613037565b6106c4565b6040516101399190613334565b60405180910390f35b61015c6004803603610157919081019061308b565b6107a0565b60405161016b9392919061338d565b60405180910390f35b61017c61099f565b6040516101899190613312565b60405180910390f35b6101ac60048036036101a79190810190612e84565b610d28565b6040516101bd9594939291906133d9565b60405180910390f35b6101e060048036036101db9190810190612ec5565b61106c565b005b6101fc60048036036101f7919081019061308b565b611b90565b60405161020f979695949392919061344f565b60405180910390f35b610232600480360361022d9190810190613037565b612007565b60405161023f9190613334565b60405180910390f35b610262600480360361025d919081019061308b565b6120e3565b604051610270929190613356565b60405180910390f35b610293600480360361028e919081019061308b565b612244565b6040516102a49594939291906134ef565b60405180910390f35b60028280516020810182018051848252602083016020850120818352809550505050505081815481106102dc57fe5b90600052602060002001600091509150508054600181600116156101000203166002900480601f0160208091040260200160405190810160405280929190818152602001828054600181600116156101000203166002900480156103815780601f1061035657610100808354040283529160200191610381565b820191906000526020600020905b81548152906001019060200180831161036457829003601f168201915b505050505081565b6001818154811061039657fe5b9060005260206000209060050201600091509050806000018054600181600116156101000203166002900480601f0160208091040260200160405190810160405280929190818152602001828054600181600116156101000203166002900480156104425780601f1061041757610100808354040283529160200191610442565b820191906000526020600020905b81548152906001019060200180831161042557829003601f168201915b505050505090806001018054600181600116156101000203166002900480601f0160208091040260200160405190810160405280929190818152602001828054600181600116156101000203166002900480156104e05780601f106104b5576101008083540402835291602001916104e0565b820191906000526020600020905b8154815290600101906020018083116104c357829003601f168201915b505050505090806002018054600181600116156101000203166002900480601f01602080910402602001604051908101604052809291908181526020018280546001816001161561010002031660029004801561057e5780601f106105535761010080835404028352916020019161057e565b820191906000526020600020905b81548152906001019060200180831161056157829003601f168201915b505050505090806003018054600181600116156101000203166002900480601f01602080910402602001604051908101604052809291908181526020018280546001816001161561010002031660029004801561061c5780601f106105f15761010080835404028352916020019161061c565b820191906000526020600020905b8154815290600101906020018083116105ff57829003601f168201915b505050505090806004018054600181600116156101000203166002900480601f0160208091040260200160405190810160405280929190818152602001828054600181600116156101000203166002900480156106ba5780601f1061068f576101008083540402835291602001916106ba565b820191906000526020600020905b81548152906001019060200180831161069d57829003601f168201915b5050505050905085565b60068280516020810182018051848252602083016020850120818352809550505050505081815481106106f357fe5b90600052602060002001600091509150508054600181600116156101000203166002900480601f0160208091040260200160405190810160405280929190818152602001828054600181600116156101000203166002900480156107985780601f1061076d57610100808354040283529160200191610798565b820191906000526020600020905b81548152906001019060200180831161077b57829003601f168201915b505050505081565b600781815481106107ad57fe5b9060005260206000209060030201600091509050806000018054600181600116156101000203166002900480601f0160208091040260200160405190810160405280929190818152602001828054600181600116156101000203166002900480156108595780601f1061082e57610100808354040283529160200191610859565b820191906000526020600020905b81548152906001019060200180831161083c57829003601f168201915b505050505090806001018054600181600116156101000203166002900480601f0160208091040260200160405190810160405280929190818152602001828054600181600116156101000203166002900480156108f75780601f106108cc576101008083540402835291602001916108f7565b820191906000526020600020905b8154815290600101906020018083116108da57829003601f168201915b505050505090806002018054600181600116156101000203166002900480601f0160208091040260200160405190810160405280929190818152602001828054600181600116156101000203166002900480156109955780601f1061096a57610100808354040283529160200191610995565b820191906000526020600020905b81548152906001019060200180831161097857829003601f168201915b5050505050905083565b60606001805480602002602001604051908101604052809291908181526020016000905b82821015610d1f57838290600052602060002090600502016040518060a0016040529081600082018054600181600116156101000203166002900480601f016020809104026020016040519081016040528092919081815260200182805460018160011615610100020316600290048015610a7f5780601f10610a5457610100808354040283529160200191610a7f565b820191906000526020600020905b815481529060010190602001808311610a6257829003601f168201915b50505050508152602001600182018054600181600116156101000203166002900480601f016020809104026020016040519081016040528092919081815260200182805460018160011615610100020316600290048015610b215780601f10610af657610100808354040283529160200191610b21565b820191906000526020600020905b815481529060010190602001808311610b0457829003601f168201915b50505050508152602001600282018054600181600116156101000203166002900480601f016020809104026020016040519081016040528092919081815260200182805460018160011615610100020316600290048015610bc35780601f10610b9857610100808354040283529160200191610bc3565b820191906000526020600020905b815481529060010190602001808311610ba657829003601f168201915b50505050508152602001600382018054600181600116156101000203166002900480601f016020809104026020016040519081016040528092919081815260200182805460018160011615610100020316600290048015610c655780601f10610c3a57610100808354040283529160200191610c65565b820191906000526020600020905b815481529060010190602001808311610c4857829003601f168201915b50505050508152602001600482018054600181600116156101000203166002900480601f016020809104026020016040519081016040528092919081815260200182805460018160011615610100020316600290048015610d075780601f10610cdc57610100808354040283529160200191610d07565b820191906000526020600020905b815481529060010190602001808311610cea57829003601f168201915b505050505081525050815260200190600101906109c3565b50505050905090565b600081805160208101820180518482526020830160208501208183528095505050505050600091509050806000018054600181600116156101000203166002900480601f016020809104026020016040519081016040528092919081815260200182805460018160011615610100020316600290048015610dea5780601f10610dbf57610100808354040283529160200191610dea565b820191906000526020600020905b815481529060010190602001808311610dcd57829003601f168201915b505050505090806001018054600181600116156101000203166002900480601f016020809104026020016040519081016040528092919081815260200182805460018160011615610100020316600290048015610e885780601f10610e5d57610100808354040283529160200191610e88565b820191906000526020600020905b815481529060010190602001808311610e6b57829003601f168201915b505050505090806002018054600181600116156101000203166002900480601f016020809104026020016040519081016040528092919081815260200182805460018160011615610100020316600290048015610f265780601f10610efb57610100808354040283529160200191610f26565b820191906000526020600020905b815481529060010190602001808311610f0957829003601f168201915b505050505090806003018054600181600116156101000203166002900480601f016020809104026020016040519081016040528092919081815260200182805460018160011615610100020316600290048015610fc45780601f10610f9957610100808354040283529160200191610fc4565b820191906000526020600020905b815481529060010190602001808311610fa757829003601f168201915b505050505090806004018054600181600116156101000203166002900480601f0160208091040260200160405190810160405280929190818152602001828054600181600116156101000203166002900480156110625780601f1061103757610100808354040283529160200191611062565b820191906000526020600020905b81548152906001019060200180831161104557829003601f168201915b5050505050905085565b60004260405160200161107f91906132f7565b6040516020818303038152906040528051906020012060001c905060606110a5826124e7565b90506110af612698565b8181600001819052508a81602001819052508981604001819052508881606001819052508781608001819052506001819080600181540180825580915050906001820390600052602060002090600502016000909192909190915060008201518160000190805190602001906111269291906126c7565b5060208201518160010190805190602001906111439291906126c7565b5060408201518160020190805190602001906111609291906126c7565b50606082015181600301908051906020019061117d9291906126c7565b50608082015181600401908051906020019061119a9291906126c7565b50505050806000836040516111af91906132e0565b908152602001604051809103902060008201518160000190805190602001906111d99291906126c7565b5060208201518160010190805190602001906111f69291906126c7565b5060408201518160020190805190602001906112139291906126c7565b5060608201518160030190805190602001906112309291906126c7565b50608082015181600401908051906020019061124d9291906126c7565b5090505060008751905060008090505b8181101561170d5761126d612747565b8360000151816000018190525089828151811061128657fe5b60200260200101516020015181602001819052508982815181106112a657fe5b60200260200101516040015181604001819052508982815181106112c657fe5b60200260200101516060015181606001819052508982815181106112e657fe5b602002602001015160800151816080018190525089828151811061130657fe5b602002602001015160a001518160a0018190525089828151811061132657fe5b602002602001015160c001518160c0018190525060008214156114a7576002846000015160405161135791906132c9565b9081526020016040518091039020816020015190806001815401808255809150509060018203906000526020600020016000909192909190915090805190602001906113a4929190612784565b50506003819080600181540180825580915050906001820390600052602060002090600702016000909192909190915060008201518160000190805190602001906113f09291906126c7565b50602082015181600101908051906020019061140d9291906126c7565b50604082015181600201908051906020019061142a9291906126c7565b5060608201518160030190805190602001906114479291906126c7565b5060808201518160040190805190602001906114649291906126c7565b5060a08201518160050190805190602001906114819291906126c7565b5060c082015181600601908051906020019061149e9291906126c7565b505050506116ff565b60008090506060600286600001516040516114c291906132c9565b9081526020016040518091039020805480602002602001604051908101604052809291908181526020016000905b828210156115ac578382906000526020600020018054600181600116156101000203166002900480601f0160208091040260200160405190810160405280929190818152602001828054600181600116156101000203166002900480156115985780601f1061156d57610100808354040283529160200191611598565b820191906000526020600020905b81548152906001019060200180831161157b57829003601f168201915b5050505050815260200190600101906114f0565b50505050905060008090505b81518110156115f9576115e28282815181106115d057fe5b60200260200101518560200151612636565b156115ec57600192505b80806001019150506115b8565b50816116fc576003839080600181540180825580915050906001820390600052602060002090600702016000909192909190915060008201518160000190805190602001906116499291906126c7565b5060208201518160010190805190602001906116669291906126c7565b5060408201518160020190805190602001906116839291906126c7565b5060608201518160030190805190602001906116a09291906126c7565b5060808201518160040190805190602001906116bd9291906126c7565b5060a08201518160050190805190602001906116da9291906126c7565b5060c08201518160060190805190602001906116f79291906126c7565b505050505b50505b50808060010191505061125d565b5060008751905060008090505b818110156117d05761172a612804565b8460000151816000018190525089828151811061174357fe5b60200260200101516020015181602001819052506005819080600181540180825580915050906001820390600052602060002090600202016000909192909190915060008201518160000190805190602001906117a19291906126c7565b5060208201518160010190805190602001906117be9291906126c7565b5050505050808060010191505061171a565b5060008751905060008090505b818110156118d0576117ed61281e565b8560000151816000018190525089828151811061180657fe5b602002602001015160200151816020018190525089828151811061182657fe5b60200260200101516040015181604001819052506007819080600181540180825580915050906001820390600052602060002090600302016000909192909190915060008201518160000190805190602001906118849291906126c7565b5060208201518160010190805190602001906118a19291906126c7565b5060408201518160020190805190602001906118be9291906126c7565b505050505080806001019150506117dd565b5060008751905060008090505b81811015611b7e576118ed61283f565b8660000151816000018190525089828151811061190657fe5b602002602001015160200151816020018190525089828151811061192657fe5b602002602001015160400151816040018190525089828151811061194657fe5b60200260200101516060015181606001819052506000816080018181525050600080905060606002896000015160405161198091906132c9565b9081526020016040518091039020805480602002602001604051908101604052809291908181526020016000905b82821015611a6a578382906000526020600020018054600181600116156101000203166002900480601f016020809104026020016040519081016040528092919081815260200182805460018160011615610100020316600290048015611a565780601f10611a2b57610100808354040283529160200191611a56565b820191906000526020600020905b815481529060010190602001808311611a3957829003601f168201915b5050505050815260200190600101906119ae565b50505050905060008090505b8151811015611ab757611aa0828281518110611a8e57fe5b60200260200101518560200151612636565b15611aaa57600192505b8080600101915050611a76565b508115611b6e57600883908060018154018082558091505090600182039060005260206000209060050201600090919290919091506000820151816000019080519060200190611b089291906126c7565b506020820151816001019080519060200190611b259291906126c7565b506040820151816002019080519060200190611b429291906126c7565b506060820151816003019080519060200190611b5f9291906126c7565b50608082015181600401555050505b50505080806001019150506118dd565b50505050505050505050505050505050565b60038181548110611b9d57fe5b9060005260206000209060070201600091509050806000018054600181600116156101000203166002900480601f016020809104026020016040519081016040528092919081815260200182805460018160011615610100020316600290048015611c495780601f10611c1e57610100808354040283529160200191611c49565b820191906000526020600020905b815481529060010190602001808311611c2c57829003601f168201915b505050505090806001018054600181600116156101000203166002900480601f016020809104026020016040519081016040528092919081815260200182805460018160011615610100020316600290048015611ce75780601f10611cbc57610100808354040283529160200191611ce7565b820191906000526020600020905b815481529060010190602001808311611cca57829003601f168201915b505050505090806002018054600181600116156101000203166002900480601f016020809104026020016040519081016040528092919081815260200182805460018160011615610100020316600290048015611d855780601f10611d5a57610100808354040283529160200191611d85565b820191906000526020600020905b815481529060010190602001808311611d6857829003601f168201915b505050505090806003018054600181600116156101000203166002900480601f016020809104026020016040519081016040528092919081815260200182805460018160011615610100020316600290048015611e235780601f10611df857610100808354040283529160200191611e23565b820191906000526020600020905b815481529060010190602001808311611e0657829003601f168201915b505050505090806004018054600181600116156101000203166002900480601f016020809104026020016040519081016040528092919081815260200182805460018160011615610100020316600290048015611ec15780601f10611e9657610100808354040283529160200191611ec1565b820191906000526020600020905b815481529060010190602001808311611ea457829003601f168201915b505050505090806005018054600181600116156101000203166002900480601f016020809104026020016040519081016040528092919081815260200182805460018160011615610100020316600290048015611f5f5780601f10611f3457610100808354040283529160200191611f5f565b820191906000526020600020905b815481529060010190602001808311611f4257829003601f168201915b505050505090806006018054600181600116156101000203166002900480601f016020809104026020016040519081016040528092919081815260200182805460018160011615610100020316600290048015611ffd5780601f10611fd257610100808354040283529160200191611ffd565b820191906000526020600020905b815481529060010190602001808311611fe057829003601f168201915b5050505050905087565b600482805160208101820180518482526020830160208501208183528095505050505050818154811061203657fe5b90600052602060002001600091509150508054600181600116156101000203166002900480601f0160208091040260200160405190810160405280929190818152602001828054600181600116156101000203166002900480156120db5780601f106120b0576101008083540402835291602001916120db565b820191906000526020600020905b8154815290600101906020018083116120be57829003601f168201915b505050505081565b600581815481106120f057fe5b9060005260206000209060020201600091509050806000018054600181600116156101000203166002900480601f01602080910402602001604051908101604052809291908181526020018280546001816001161561010002031660029004801561219c5780601f106121715761010080835404028352916020019161219c565b820191906000526020600020905b81548152906001019060200180831161217f57829003601f168201915b505050505090806001018054600181600116156101000203166002900480601f01602080910402602001604051908101604052809291908181526020018280546001816001161561010002031660029004801561223a5780601f1061220f5761010080835404028352916020019161223a565b820191906000526020600020905b81548152906001019060200180831161221d57829003601f168201915b5050505050905082565b6008818154811061225157fe5b9060005260206000209060050201600091509050806000018054600181600116156101000203166002900480601f0160208091040260200160405190810160405280929190818152602001828054600181600116156101000203166002900480156122fd5780601f106122d2576101008083540402835291602001916122fd565b820191906000526020600020905b8154815290600101906020018083116122e057829003601f168201915b505050505090806001018054600181600116156101000203166002900480601f01602080910402602001604051908101604052809291908181526020018280546001816001161561010002031660029004801561239b5780601f106123705761010080835404028352916020019161239b565b820191906000526020600020905b81548152906001019060200180831161237e57829003601f168201915b505050505090806002018054600181600116156101000203166002900480601f0160208091040260200160405190810160405280929190818152602001828054600181600116156101000203166002900480156124395780601f1061240e57610100808354040283529160200191612439565b820191906000526020600020905b81548152906001019060200180831161241c57829003601f168201915b505050505090806003018054600181600116156101000203166002900480601f0160208091040260200160405190810160405280929190818152602001828054600181600116156101000203166002900480156124d75780601f106124ac576101008083540402835291602001916124d7565b820191906000526020600020905b8154815290600101906020018083116124ba57829003601f168201915b5050505050908060040154905085565b60608060286040519080825280601f01601f19166020018201604052801561251e5781602001600182028038833980820191505090505b50905060008090505b601481101561262c5760008160130360080260020a8573ffffffffffffffffffffffffffffffffffffffff168161255a57fe5b0460f81b9050600060108260f81c60ff168161257257fe5b0460f81b905060008160f81c6010028360f81c0360f81b905061259482612664565b8585600202815181106125a357fe5b60200101907effffffffffffffffffffffffffffffffffffffffffffffffffffffffffffff1916908160001a9053506125db81612664565b8560018660020201815181106125ed57fe5b60200101907effffffffffffffffffffffffffffffffffffffffffffffffffffffffffffff1916908160001a9053505050508080600101915050612527565b5080915050919050565b6000815183511461264a576000905061265e565b818051906020012083805190602001201490505b92915050565b6000600a8260f81c60ff1610156126865760308260f81c0160f81b9050612693565b60578260f81c0160f81b90505b919050565b6040518060a0016040528060608152602001606081526020016060815260200160608152602001606081525090565b828054600181600116156101000203166002900490600052602060002090601f016020900481019282601f1061270857805160ff1916838001178555612736565b82800160010185558215612736579182015b8281111561273557825182559160200191906001019061271a565b5b509050612743919061286e565b5090565b6040518060e00160405280606081526020016060815260200160608152602001606081526020016060815260200160608152602001606081525090565b828054600181600116156101000203166002900490600052602060002090601f016020900481019282601f106127c557805160ff19168380011785556127f3565b828001600101855582156127f3579182015b828111156127f25782518255916020019190600101906127d7565b5b509050612800919061286e565b5090565b604051806040016040528060608152602001606081525090565b60405180606001604052806060815260200160608152602001606081525090565b6040518060a0016040528060608152602001606081526020016060815260200160608152602001600081525090565b61289091905b8082111561288c576000816000905550600101612874565b5090565b90565b600082601f8301126128a457600080fd5b81356128b76128b28261358b565b61355e565b9150818183526020840193506020810190508360005b838110156128fd57813586016128e38882612b0b565b8452602084019350602083019250506001810190506128cd565b5050505092915050565b600082601f83011261291857600080fd5b813561292b612926826135b3565b61355e565b9150818183526020840193506020810190508360005b8381101561297157813586016129578882612bf3565b845260208401935060208301925050600181019050612941565b5050505092915050565b600082601f83011261298c57600080fd5b813561299f61299a826135db565b61355e565b9150818183526020840193506020810190508360005b838110156129e557813586016129cb8882612c9b565b8452602084019350602083019250506001810190506129b5565b5050505092915050565b600082601f830112612a0057600080fd5b8135612a13612a0e82613603565b61355e565b9150818183526020840193506020810190508360005b83811015612a595781358601612a3f8882612d17565b845260208401935060208301925050600181019050612a29565b5050505092915050565b600082601f830112612a7457600080fd5b8135612a87612a828261362b565b61355e565b91508082526020830160208301858383011115612aa357600080fd5b612aae838284613709565b50505092915050565b600082601f830112612ac857600080fd5b8135612adb612ad682613657565b61355e565b91508082526020830160208301858383011115612af757600080fd5b612b02838284613709565b50505092915050565b600060a08284031215612b1d57600080fd5b612b2760a061355e565b9050600082013567ffffffffffffffff811115612b4357600080fd5b612b4f84828501612a63565b600083015250602082013567ffffffffffffffff811115612b6f57600080fd5b612b7b84828501612a63565b602083015250604082013567ffffffffffffffff811115612b9b57600080fd5b612ba784828501612a63565b604083015250606082013567ffffffffffffffff811115612bc757600080fd5b612bd384828501612a63565b6060830152506080612be784828501612e6f565b60808301525092915050565b600060608284031215612c0557600080fd5b612c0f606061355e565b9050600082013567ffffffffffffffff811115612c2b57600080fd5b612c3784828501612a63565b600083015250602082013567ffffffffffffffff811115612c5757600080fd5b612c6384828501612a63565b602083015250604082013567ffffffffffffffff811115612c8357600080fd5b612c8f84828501612a63565b60408301525092915050565b600060408284031215612cad57600080fd5b612cb7604061355e565b9050600082013567ffffffffffffffff811115612cd357600080fd5b612cdf84828501612a63565b600083015250602082013567ffffffffffffffff811115612cff57600080fd5b612d0b84828501612a63565b60208301525092915050565b600060e08284031215612d2957600080fd5b612d3360e061355e565b9050600082013567ffffffffffffffff811115612d4f57600080fd5b612d5b84828501612a63565b600083015250602082013567ffffffffffffffff811115612d7b57600080fd5b612d8784828501612a63565b602083015250604082013567ffffffffffffffff811115612da757600080fd5b612db384828501612a63565b604083015250606082013567ffffffffffffffff811115612dd357600080fd5b612ddf84828501612a63565b606083015250608082013567ffffffffffffffff811115612dff57600080fd5b612e0b84828501612a63565b60808301525060a082013567ffffffffffffffff811115612e2b57600080fd5b612e3784828501612a63565b60a08301525060c082013567ffffffffffffffff811115612e5757600080fd5b612e6384828501612a63565b60c08301525092915050565b600081359050612e7e81613766565b92915050565b600060208284031215612e9657600080fd5b600082013567ffffffffffffffff811115612eb057600080fd5b612ebc84828501612a63565b91505092915050565b600080600080600080600080610100898b031215612ee257600080fd5b600089013567ffffffffffffffff811115612efc57600080fd5b612f088b828c01612ab7565b985050602089013567ffffffffffffffff811115612f2557600080fd5b612f318b828c01612ab7565b975050604089013567ffffffffffffffff811115612f4e57600080fd5b612f5a8b828c01612ab7565b965050606089013567ffffffffffffffff811115612f7757600080fd5b612f838b828c01612ab7565b955050608089013567ffffffffffffffff811115612fa057600080fd5b612fac8b828c016129ef565b94505060a089013567ffffffffffffffff811115612fc957600080fd5b612fd58b828c0161297b565b93505060c089013567ffffffffffffffff811115612ff257600080fd5b612ffe8b828c01612907565b92505060e089013567ffffffffffffffff81111561301b57600080fd5b6130278b828c01612893565b9150509295985092959890939650565b6000806040838503121561304a57600080fd5b600083013567ffffffffffffffff81111561306457600080fd5b61307085828601612a63565b925050602061308185828601612e6f565b9150509250929050565b60006020828403121561309d57600080fd5b60006130ab84828501612e6f565b91505092915050565b60006130c08383613211565b905092915050565b60006130d382613693565b6130dd81856136c1565b9350836020820285016130ef85613683565b8060005b8581101561312b578484038952815161310c85826130b4565b9450613117836136b4565b925060208a019950506001810190506130f3565b50829750879550505050505092915050565b6000613148826136a9565b61315281856136f4565b9350613162818560208601613718565b80840191505092915050565b60006131798261369e565b61318381856136d2565b9350613193818560208601613718565b61319c81613755565b840191505092915050565b60006131b28261369e565b6131bc81856136e3565b93506131cc818560208601613718565b6131d581613755565b840191505092915050565b60006131eb8261369e565b6131f581856136f4565b9350613205818560208601613718565b80840191505092915050565b600060a083016000830151848203600086015261322e828261316e565b91505060208301518482036020860152613248828261316e565b91505060408301518482036040860152613262828261316e565b9150506060830151848203606086015261327c828261316e565b91505060808301518482036080860152613296828261316e565b9150508091505092915050565b6132ac816136ff565b82525050565b6132c36132be826136ff565b61374b565b82525050565b60006132d582846131e0565b915081905092915050565b60006132ec828461313d565b915081905092915050565b600061330382846132b2565b60208201915081905092915050565b6000602082019050818103600083015261332c81846130c8565b905092915050565b6000602082019050818103600083015261334e81846131a7565b905092915050565b6000604082019050818103600083015261337081856131a7565b9050818103602083015261338481846131a7565b90509392505050565b600060608201905081810360008301526133a781866131a7565b905081810360208301526133bb81856131a7565b905081810360408301526133cf81846131a7565b9050949350505050565b600060a08201905081810360008301526133f381886131a7565b9050818103602083015261340781876131a7565b9050818103604083015261341b81866131a7565b9050818103606083015261342f81856131a7565b9050818103608083015261344381846131a7565b90509695505050505050565b600060e0820190508181036000830152613469818a6131a7565b9050818103602083015261347d81896131a7565b9050818103604083015261349181886131a7565b905081810360608301526134a581876131a7565b905081810360808301526134b981866131a7565b905081810360a08301526134cd81856131a7565b905081810360c08301526134e181846131a7565b905098975050505050505050565b600060a082019050818103600083015261350981886131a7565b9050818103602083015261351d81876131a7565b9050818103604083015261353181866131a7565b9050818103606083015261354581856131a7565b905061355460808301846132a3565b9695505050505050565b6000604051905081810181811067ffffffffffffffff8211171561358157600080fd5b8060405250919050565b600067ffffffffffffffff8211156135a257600080fd5b602082029050602081019050919050565b600067ffffffffffffffff8211156135ca57600080fd5b602082029050602081019050919050565b600067ffffffffffffffff8211156135f257600080fd5b602082029050602081019050919050565b600067ffffffffffffffff82111561361a57600080fd5b602082029050602081019050919050565b600067ffffffffffffffff82111561364257600080fd5b601f19601f8301169050602081019050919050565b600067ffffffffffffffff82111561366e57600080fd5b601f19601f8301169050602081019050919050565b6000819050602082019050919050565b600081519050919050565b600081519050919050565b600081519050919050565b6000602082019050919050565b600082825260208201905092915050565b600082825260208201905092915050565b600082825260208201905092915050565b600081905092915050565b6000819050919050565b82818337600083830152505050565b60005b8381101561373657808201518184015260208101905061371b565b83811115613745576000848401525b50505050565b6000819050919050565b6000601f19601f8301169050919050565b61376f816136ff565b811461377a57600080fd5b5056fea365627a7a72315820c481fe929a3abd292d9ac810f9d9e080b5df8b38bd255d98af423b8d341bb8bc6c6578706572696d656e74616cf564736f6c63430005100040",
  "source": "pragma solidity >=0.4.22 <0.9.0;\r\npragma experimental ABIEncoderV2;\r\n\r\n\r\ncontract EventContract {\r\n\r\n\r\n\r\n    struct User{\r\n        string eid;\r\n        string userCnic;\r\n        string userPhone;\r\n        string userFullName;\r\n        string dateOfBirth;\r\n        string gender;\r\n        string dateOfCnicExpiry;\r\n    }\r\n\r\n    struct Candidate{\r\n        string eid;\r\n        string candidateCnic;\r\n        string position;\r\n        string party;\r\n        uint votes;\r\n    }\r\n\r\n    //inProgress\r\n    //finished\r\n    //hidden\r\n\r\n    struct Event { \r\n        string eid;\r\n        string eventName;\r\n        string stateOfEvent;\r\n        string startTime;\r\n        string endTime;\r\n        \r\n    }\r\n\r\n    struct Position{\r\n        string eid;\r\n        string positionName;\r\n    }\r\n\r\n    struct Party{\r\n        string eid;\r\n        string partyName;\r\n        string partyCode;\r\n    }\r\n\r\n    mapping (string => Event) public eIdToEvent;\r\n    Event[] public allEvents;\r\n    mapping (string => string[]) public eIdToUsers;\r\n    User[] public allUsers; \r\n    mapping (string => string[]) public eIdToPosition;\r\n    Position[] public allPositions;\r\n    mapping (string => string[]) public eIdToParties;\r\n    Party[] public allParties;\r\n    Candidate[] public allCandidates;\r\n\r\n    User[] private init1Users;\r\n    Position[] private init1Positions;\r\n    Party[] private init1Parties;\r\n    Candidate[] private init1Candidates;\r\n    User[] private init2Users;\r\n    Position[] private init2Positions;\r\n    Party[] private init2Parties;\r\n    Candidate[] private init2Candidates;\r\n    User[] private init3Users;\r\n    Position[] private init3Positions;\r\n    Party[] private init3Parties;\r\n    Candidate[] private init3Candidates;\r\n\r\n    constructor() public payable{\r\n\r\n        \r\n        User memory myStruct1 = User(\"a\",\"42101123456790\",\"+923222111222\",\"John Kene\",\"123\",\"M\",\"123\");\r\n        User memory myStruct2 = User(\"b\",\"42101123456791\",\"+923222111223\",\"Michael lewis\",\"124\",\"F\",\"124\");\r\n        User memory myStruct3 = User(\"c\",\"42101123456792\",\"+923222111224\",\"John Cena\",\"125\",\"T\",\"125\");\r\n        User memory myStruct4 = User(\"d\",\"42101123456793\",\"+923222111225\",\"Michael Jackson\",\"125\",\"M\",\"125\");\r\n        User memory myStruct5 = User(\"e\",\"42101123456794\",\"+923222111226\",\"Elizabeth Kin\",\"125\",\"F\",\"125\");\r\n        init1Users.push(myStruct1);\r\n        init1Users.push(myStruct2);\r\n        init1Users.push(myStruct3);\r\n        init1Users.push(myStruct4);\r\n        init1Users.push(myStruct5);\r\n\r\n        Position memory myPos1 = Position(\"a\",\"president\");\r\n        init1Positions.push(myPos1);\r\n\r\n        Party memory myPart1 = Party(\"a\",\"peoples party\",\"pp\");\r\n        Party memory myPart2 = Party(\"a\",\"democrats\",\"dds\");\r\n        init1Parties.push(myPart1);\r\n        init1Parties.push(myPart2);\r\n        \r\n        Candidate memory myCand1 = Candidate(\"1\",\"42101123456790\",\"president\",\"ppp\",0);\r\n        Candidate memory myCand2 = Candidate(\"1\",\"42101123456791\",\"president\",\"dds\",0);\r\n        init1Candidates.push(myCand1);\r\n        init1Candidates.push(myCand2);\r\n\r\n\r\n\r\n        createEvent(\r\n            \"USA Presedential\",\r\n            \"inProgress\",\r\n            \"2022-01-12T03:42:00.000\",\r\n            \"2022-01-16T00:09:00.000\",\r\n            init1Users,init1Positions,init1Parties,init1Candidates\r\n        );\r\n\r\n\r\n        // User memory myStruct6 = User(\"abcd\",\"42101123456780\",\"+923222111222\",\"Mathew Hayden\",\"123\",\"M\",\"123\");\r\n        // User memory myStruct7 = User(\"abcd\",\"42101123456781\",\"+923222111223\",\"Lewis litt\",\"124\",\"F\",\"124\");\r\n        // User memory myStruct8 = User(\"abcd\",\"42101123456782\",\"+923222111224\",\"John Max\",\"125\",\"T\",\"125\");\r\n        // User memory myStruct9 = User(\"abcd\",\"42101123456783\",\"+923222111225\",\"Michael Shawn\",\"125\",\"M\",\"125\");\r\n        // User memory myStruct10 = User(\"abcd\",\"42101123456784\",\"+923222111226\",\"Vinley\",\"125\",\"F\",\"125\");\r\n        // allUsers.push(myStruct6);\r\n        // allUsers.push(myStruct7);\r\n        // allUsers.push(myStruct8);\r\n        // allUsers.push(myStruct9);\r\n        // allUsers.push(myStruct10);\r\n\r\n        // Position memory myPos2 = Position(\"abcd\",\"headstudent\");\r\n        // allPositions.push(myPos2);\r\n\r\n        // Party memory myPart3 = Party(\"abcd\",\"sharks\",\"ss\");\r\n        // Party memory myPart4 = Party(\"abcd\",\"lions\",\"ll\");\r\n        // allParties.push(myPart3);\r\n        // allParties.push(myPart4);\r\n        \r\n        // Candidate memory myCand3 = Candidate(\"abcd\",\"42101123456780\",\"headstudent\",\"ss\",0);\r\n        // Candidate memory myCand4 = Candidate(\"abcd\",\"42101123456781\",\"headstudent\",\"ll\",0);\r\n        // allCandidates.push(myCand3);\r\n        // allCandidates.push(myCand4);\r\n        \r\n        // Event memory newEvent;\r\n        // newEvent.eid = \"abcd\";\r\n        // newEvent.eventName = \"ST lewis School Elections\";\r\n        // newEvent.stateOfEvent = \"inProgress\";\r\n        // newEvent.startTime =  \"2022-01-12T03:42:00.000\";\r\n        // newEvent.endTime = \"2022-01-16T00:09:00.000\";\r\n        // allEvents.push(newEvent);\r\n        // eIdToEvent[\"abcd\"] = newEvent;\r\n        \r\n\r\n        \r\n    }\r\n\r\n\r\n\r\n    function createEvent(string memory newEventName,string memory newStateOfEvent,string memory newStartTime,string memory newEndTime,User[] memory userList,Position[] memory positionList,Party[] memory partyList,Candidate[] memory candidatesList) public{\r\n\r\n        //for Event\r\n        address addr = address(uint160(uint(keccak256(abi.encodePacked(block.timestamp)))));\r\n        string memory id = toAsciiString(addr);\r\n        Event memory newEvent;\r\n        newEvent.eid = id;\r\n        newEvent.eventName = newEventName;\r\n        newEvent.stateOfEvent = newStateOfEvent;\r\n        newEvent.startTime = newStartTime;\r\n        newEvent.endTime = newEndTime;\r\n        allEvents.push(newEvent);\r\n        eIdToEvent[id] = newEvent;\r\n        \r\n       \r\n        //for Users    \r\n        uint usersLength = userList.length;\r\n        \r\n        for(uint i = 0; i< usersLength ; i++){\r\n            User memory newUser;\r\n            newUser.eid = newEvent.eid;\r\n            newUser.userCnic = userList[i].userCnic;    \r\n            newUser.userPhone = userList[i].userPhone;  \r\n            newUser.userFullName = userList[i].userFullName;\r\n            newUser.dateOfBirth = userList[i].dateOfBirth;    \r\n            newUser.gender = userList[i].gender;    \r\n            newUser.dateOfCnicExpiry = userList[i].dateOfCnicExpiry;    \r\n            if(i == 0){\r\n                eIdToUsers[newEvent.eid].push(newUser.userCnic);  \r\n                allUsers.push(newUser);\r\n            }\r\n            else{\r\n                bool isPresent = false;\r\n                string[] memory checkList = eIdToUsers[newEvent.eid];\r\n                for(uint singleUserIndex = 0;singleUserIndex<checkList.length ;singleUserIndex++ ){\r\n                    if(hashCompareWithLengthCheck(checkList[singleUserIndex], newUser.userCnic) ){\r\n                       isPresent = true; \r\n                    }\r\n                }\r\n                if(!isPresent){\r\n                    allUsers.push(newUser);\r\n                }\r\n\r\n            }\r\n            \r\n        }\r\n       \r\n       //position\r\n        uint positionsLength = positionList.length;\r\n        \r\n        for(uint i = 0; i< positionsLength ; i++){\r\n            Position memory newPosition;\r\n            newPosition.eid = newEvent.eid; \r\n            newPosition.positionName = positionList[i].positionName;\r\n            allPositions.push(newPosition);\r\n        }\r\n\r\n       //party\r\n        uint partiesLength = partyList.length;\r\n        \r\n        for(uint i = 0; i< partiesLength ; i++){\r\n            Party memory newParty;\r\n            newParty.eid = newEvent.eid; \r\n            newParty.partyName = partyList[i].partyName;\r\n            newParty.partyCode = partyList[i].partyCode;\r\n            allParties.push(newParty);\r\n        }\r\n\r\n        //candidates\r\n        uint candidatesLength = candidatesList.length;\r\n        \r\n        for(uint i = 0; i< candidatesLength ; i++){\r\n            Candidate memory newCandidate;\r\n            newCandidate.eid = newEvent.eid; \r\n            newCandidate.candidateCnic = candidatesList[i].candidateCnic;\r\n            newCandidate.position = candidatesList[i].position;\r\n            newCandidate.party = candidatesList[i].party;\r\n            newCandidate.votes = 0;\r\n             bool isPresent = false;\r\n                string[] memory checkList = eIdToUsers[newEvent.eid];\r\n                for(uint singleUserIndex = 0;singleUserIndex<checkList.length ;singleUserIndex++ ){\r\n                    if(hashCompareWithLengthCheck(checkList[singleUserIndex],  newCandidate.candidateCnic) ){\r\n                       isPresent = true; \r\n                    }\r\n                }\r\n                if(isPresent){\r\n                    allCandidates.push(newCandidate);\r\n                }\r\n\r\n            \r\n        }        \r\n    }\r\n\r\n    // function createTestEvent(string memory eventName,string memory startTime,string memory endTime)public{\r\n        \r\n    //     //for Event\r\n    //     address addr = address(uint160(uint(keccak256(abi.encodePacked(block.timestamp)))));\r\n    //     string memory id = \"newString\";\r\n\r\n    //     Event memory newEvent;\r\n    //     newEvent.eid = id;\r\n    //     newEvent.eventName = eventName;\r\n    //     newEvent.stateOfEvent = \"inProgress\";\r\n    //     newEvent.startTime =  startTime;\r\n    //     newEvent.endTime = endTime;\r\n    //     allEvents.push(newEvent);\r\n    //     eIdToEvent[id] = newEvent; \r\n    //     User memory myStruct6 = User(id,\"42101123456780\",\"+923222111222\",\"Mathew Hayden\",\"123\",\"M\",\"123\");\r\n    //     User memory myStruct7 = User(id,\"42101123456781\",\"+923222111223\",\"Lewis litt\",\"124\",\"F\",\"124\");\r\n    //     User memory myStruct8 = User(id,\"42101123456782\",\"+923222111224\",\"John Max\",\"125\",\"T\",\"125\");\r\n    //     User memory myStruct9 = User(id,\"42101123456783\",\"+923222111225\",\"Michael Shawn\",\"125\",\"M\",\"125\");\r\n    //     User memory myStruct10 = User(id,\"42101123456784\",\"+923222111226\",\"Vinley\",\"125\",\"F\",\"125\");\r\n    //     allUsers.push(myStruct6);\r\n    //     allUsers.push(myStruct7);\r\n    //     allUsers.push(myStruct8);\r\n    //     allUsers.push(myStruct9);\r\n    //     allUsers.push(myStruct10);\r\n\r\n    //     Position memory myPos2 = Position(id,\"headstudent\");\r\n    //     allPositions.push(myPos2);\r\n\r\n    //     Party memory myPart3 = Party(id,\"sharks\",\"ss\");\r\n    //     Party memory myPart4 = Party(id,\"lions\",\"ll\");\r\n    //     allParties.push(myPart3);\r\n    //     allParties.push(myPart4);\r\n        \r\n    //     Candidate memory myCand3 = Candidate(id,\"42101123456780\",\"headstudent\",\"ss\",0);\r\n    //     Candidate memory myCand4 = Candidate(id,\"42101123456781\",\"headstudent\",\"ll\",0);\r\n    //     allCandidates.push(myCand3);\r\n    //     allCandidates.push(myCand4);\r\n        \r\n            \r\n    // }\r\n\r\n    function getEventData() public returns (Event[] memory){\r\n        return allEvents;\r\n    }\r\n\r\n\r\n    function toAsciiString(address x) internal pure returns (string memory) {\r\n        bytes memory s = new bytes(40);\r\n        for (uint i = 0; i < 20; i++) {\r\n            bytes1 b = bytes1(uint8(uint(uint160(x)) / (2**(8*(19 - i)))));\r\n            bytes1 hi = bytes1(uint8(b) / 16);\r\n            bytes1 lo = bytes1(uint8(b) - 16 * uint8(hi));\r\n            s[2*i] = char(hi);\r\n            s[2*i+1] = char(lo);            \r\n        }\r\n        return string(s);\r\n    }\r\n\r\n    function char(bytes1 b) internal pure returns (bytes1 c) {\r\n        if (uint8(b) < 10) return bytes1(uint8(b) + 0x30);\r\n        else return bytes1(uint8(b) + 0x57);\r\n    }\r\n\r\n    function hashCompareWithLengthCheck(string memory a, string memory b) internal returns (bool) {\r\n        if(bytes(a).length != bytes(b).length) {\r\n            return false;\r\n        } else {\r\n            return keccak256(bytes(a)) == keccak256(bytes(b));\r\n        }\r\n    }\r\n\r\n\r\n}\r\n\r\n",
  "sourcePath": "E:\\flutter\\Flutter-Blockchain-Playground\\mywork\\New folder\\dapp_election_user\\contracts\\EventContract.sol",
  "compiler": {
    "name": "solc",
    "version": "0.5.16+commit.9c3226ce.Emscripten.clang"
  },
  "schemaVersion": "3.4.3",
  "updatedAt": "2022-01-12T01:29:57.791Z",
  "networkType": "ethereum",
  "devdoc": {
    "methods": {}
  },
  "userdoc": {
    "methods": {}
  }
}