{
  "contractName": "LoginSystem",
  "abi": [
    {
      "inputs": [],
      "payable": true,
      "stateMutability": "payable",
      "type": "constructor"
    },
    {
      "constant": false,
      "inputs": [
        {
          "internalType": "string",
          "name": "enteredCnic",
          "type": "string"
        },
        {
          "internalType": "string",
          "name": "enteredPassword",
          "type": "string"
        }
      ],
      "name": "registerUser",
      "outputs": [],
      "payable": false,
      "stateMutability": "nonpayable",
      "type": "function"
    },
    {
      "constant": false,
      "inputs": [
        {
          "internalType": "string",
          "name": "enteredCnic",
          "type": "string"
        },
        {
          "internalType": "string",
          "name": "enteredPassword",
          "type": "string"
        }
      ],
      "name": "loginUser",
      "outputs": [
        {
          "internalType": "string",
          "name": "",
          "type": "string"
        }
      ],
      "payable": false,
      "stateMutability": "nonpayable",
      "type": "function"
    }
  ],
  "bytecode": "0x60806040524260038190555061105e8061001a6000396000f3fe608060405234801561001057600080fd5b50600436106100365760003560e01c80631d2e4afd1461003b57806322ce12e51461018d575b600080fd5b61018b6004803603604081101561005157600080fd5b810190808035906020019064010000000081111561006e57600080fd5b82018360208201111561008057600080fd5b803590602001918460018302840111640100000000831117156100a257600080fd5b91908080601f016020809104026020016040519081016040528093929190818152602001838380828437600081840152601f19601f8201169050808301925050505050505091929192908035906020019064010000000081111561010557600080fd5b82018360208201111561011757600080fd5b8035906020019184600183028401116401000000008311171561013957600080fd5b91908080601f016020809104026020016040519081016040528093929190818152602001838380828437600081840152601f19601f820116905080830192505050505050509192919290505050610358565b005b6102dd600480360360408110156101a357600080fd5b81019080803590602001906401000000008111156101c057600080fd5b8201836020820111156101d257600080fd5b803590602001918460018302840111640100000000831117156101f457600080fd5b91908080601f016020809104026020016040519081016040528093929190818152602001838380828437600081840152601f19601f8201169050808301925050505050505091929192908035906020019064010000000081111561025757600080fd5b82018360208201111561026957600080fd5b8035906020019184600183028401116401000000008311171561028b57600080fd5b91908080601f016020809104026020016040519081016040528093929190818152602001838380828437600081840152601f19601f8201169050808301925050505050505091929192905050506104bf565b6040518080602001828103825283818151815260200191508051906020019080838360005b8381101561031d578082015181840152602081019050610302565b50505050905090810190601f16801561034a5780820380516001836020036101000a031916815260200191505b509250505060405180910390f35b610360610edb565b61036a8383610c85565b905080600182602001516040518082805190602001908083835b602083106103a75780518252602082019150602081019050602083039250610384565b6001836020036101000a038019825116818451168082178552505050505050905001915050908152602001604051809103902060008201518160000190805190602001906103f6929190610efc565b506020820151816001019080519060200190610413929190610efc565b506040820151816002019080519060200190610430929190610efc565b509050506001600282602001516040518082805190602001908083835b60208310610470578051825260208201915060208101905060208303925061044d565b6001836020036101000a038019825116818451168082178552505050505050905001915050908152602001604051809103902060006101000a81548160ff021916908315150217905550505050565b6060600115156002846040518082805190602001908083835b602083106104fb57805182526020820191506020810190506020830392506104d8565b6001836020036101000a038019825116818451168082178552505050505050905001915050908152602001604051809103902060009054906101000a900460ff16151514801561065557506106546001846040518082805190602001908083835b6020831061057f578051825260208201915060208101905060208303925061055c565b6001836020036101000a03801982511681845116808217855250505050505090500191505090815260200160405180910390206002018054600181600116156101000203166002900480601f0160208091040260200160405190810160405280929190818152602001828054600181600116156101000203166002900480156106495780601f1061061e57610100808354040283529160200191610649565b820191906000526020600020905b81548152906001019060200180831161062c57829003601f168201915b505050505083610cf7565b5b15610a9557610662610f7c565b6108c46001856040518082805190602001908083835b6020831061069b5780518252602082019150602081019050602083039250610678565b6001836020036101000a0380198251168184511680821785525050505050509050019150509081526020016040518091039020604051806060016040529081600082018054600181600116156101000203166002900480601f0160208091040260200160405190810160405280929190818152602001828054600181600116156101000203166002900480156107725780601f1061074757610100808354040283529160200191610772565b820191906000526020600020905b81548152906001019060200180831161075557829003601f168201915b50505050508152602001600182018054600181600116156101000203166002900480601f0160208091040260200160405190810160405280929190818152602001828054600181600116156101000203166002900480156108145780601f106107e957610100808354040283529160200191610814565b820191906000526020600020905b8154815290600101906020018083116107f757829003601f168201915b50505050508152602001600282018054600181600116156101000203166002900480601f0160208091040260200160405190810160405280929190818152602001828054600181600116156101000203166002900480156108b65780601f1061088b576101008083540402835291602001916108b6565b820191906000526020600020905b81548152906001019060200180831161089957829003601f168201915b505050505081525050610d25565b90506060816020015182600001516040516020018080610fe660449139604401807f220000000000000000000000000000000000000000000000000000000000000081525060010183805190602001908083835b6020831061093b5780518252602082019150602081019050602083039250610918565b6001836020036101000a038019825116818451168082178552505050505050905001807f2200000000000000000000000000000000000000000000000000000000000000815250600101807f2c2275736572436e6963223a0000000000000000000000000000000000000000815250600c01807f220000000000000000000000000000000000000000000000000000000000000081525060010182805190602001908083835b60208310610a0457805182526020820191506020810190506020830392506109e1565b6001836020036101000a038019825116818451168082178552505050505050905001807f2200000000000000000000000000000000000000000000000000000000000000815250600101807f7d7d0000000000000000000000000000000000000000000000000000000000008152506002019250505060405160208183030381529060405290508092505050610c7f565b600115156002846040518082805190602001908083835b60208310610acf5780518252602082019150602081019050602083039250610aac565b6001836020036101000a038019825116818451168082178552505050505050905001915050908152602001604051809103902060009054906101000a900460ff161515148015610c295750610c286001846040518082805190602001908083835b60208310610b535780518252602082019150602081019050602083039250610b30565b6001836020036101000a03801982511681845116808217855250505050505090500191505090815260200160405180910390206002018054600181600116156101000203166002900480601f016020809104026020016040519081016040528092919081815260200182805460018160011615610100020316600290048015610c1d5780601f10610bf257610100808354040283529160200191610c1d565b820191906000526020600020905b815481529060010190602001808311610c0057829003601f168201915b505050505083610cf7565b5b610c7e576040517f08c379a000000000000000000000000000000000000000000000000000000000815260040180806020018281038252602a815260200180610fbc602a913960400191505060405180910390fd5b5b92915050565b610c8d610edb565b610c95610edb565b600042604051602001808281526020019150506040516020818303038152906040528051906020012060001c90506060610cce82610d58565b905080836000018190525085836020018190525084836040018190525082935050505092915050565b60008151835114610d0b5760009050610d1f565b818051906020012083805190602001201490505b92915050565b610d2d610f7c565b610d35610f7c565b826020015181600001819052508260000151816020018190525080915050919050565b60608060286040519080825280601f01601f191660200182016040528015610d8f5781602001600182028038833980820191505090505b50905060008090505b6014811015610e9d5760008160130360080260020a8573ffffffffffffffffffffffffffffffffffffffff1681610dcb57fe5b0460f81b9050600060108260f81c60ff1681610de357fe5b0460f81b905060008160f81c6010028360f81c0360f81b9050610e0582610ea7565b858560020281518110610e1457fe5b60200101907effffffffffffffffffffffffffffffffffffffffffffffffffffffffffffff1916908160001a905350610e4c81610ea7565b856001866002020181518110610e5e57fe5b60200101907effffffffffffffffffffffffffffffffffffffffffffffffffffffffffffff1916908160001a9053505050508080600101915050610d98565b5080915050919050565b6000600a8260f81c60ff161015610ec95760308260f81c0160f81b9050610ed6565b60578260f81c0160f81b90505b919050565b60405180606001604052806060815260200160608152602001606081525090565b828054600181600116156101000203166002900490600052602060002090601f016020900481019282601f10610f3d57805160ff1916838001178555610f6b565b82800160010185558215610f6b579182015b82811115610f6a578251825591602001919060010190610f4f565b5b509050610f789190610f96565b5090565b604051806040016040528060608152602001606081525090565b610fb891905b80821115610fb4576000816000905550600101610f9c565b5090565b9056fe4c6f67696e205573657220646f6573206e6f742065786973742c20506c656173652072656769737465727b22537461747573436f6465223a3230302c225374617475734d657373616765223a2255736572204c6f6767656420496e222c2244617461223a7b22757365724964223aa265627a7a72315820594f34ff6e5cdd9780f20a0804eb883cac725c448bde8309491792fbcc4c64e964736f6c63430005100032",
  "source": "pragma solidity >=0.4.22 <0.9.0;\r\n\r\ncontract LoginSystem {\r\n\r\n    struct User { \r\n        string userId;\r\n        string userCnic;\r\n        string password;\r\n        \r\n    }\r\n\r\n    struct ToReturnUser{\r\n        string userCnic;\r\n        string userId;\r\n    }\r\n\r\n    mapping(string => uint256) private jsonLoginResponse;\r\n\r\n    function mapUserToReturnUser(User memory newUser) private returns (ToReturnUser memory )\r\n    {\r\n        ToReturnUser memory newReturnUser;\r\n        newReturnUser.userCnic = newUser.userCnic;\r\n        newReturnUser.userId = newUser.userId;\r\n        return newReturnUser;\r\n\r\n    }\r\n\r\n    function toAsciiString(address x) internal pure returns (string memory) {\r\n        bytes memory s = new bytes(40);\r\n        for (uint i = 0; i < 20; i++) {\r\n            bytes1 b = bytes1(uint8(uint(uint160(x)) / (2**(8*(19 - i)))));\r\n            bytes1 hi = bytes1(uint8(b) / 16);\r\n            bytes1 lo = bytes1(uint8(b) - 16 * uint8(hi));\r\n            s[2*i] = char(hi);\r\n            s[2*i+1] = char(lo);            \r\n        }\r\n        return string(s);\r\n    }\r\n\r\n    function char(bytes1 b) internal pure returns (bytes1 c) {\r\n        if (uint8(b) < 10) return bytes1(uint8(b) + 0x30);\r\n        else return bytes1(uint8(b) + 0x57);\r\n    }\r\n\r\n    function mapToUserAssignId(string memory enteredCnic, string memory enteredPassword) private returns (User memory )\r\n    {\r\n        User memory newUserToBeRegistered;\r\n        address addr = address(uint160(uint(keccak256(abi.encodePacked(block.timestamp)))));\r\n        string memory id = toAsciiString(addr);\r\n        newUserToBeRegistered.userId = id;\r\n        newUserToBeRegistered.userCnic = enteredCnic;\r\n        newUserToBeRegistered.password = enteredPassword;\r\n        return newUserToBeRegistered;\r\n    }\r\n\r\n    \r\n\r\n    \r\n\r\n    mapping (string => User) private emailToUsers;\r\n\r\n    mapping(string => bool) private emailToExists;\r\n\r\n    function hashCompareWithLengthCheck(string memory a, string memory b) internal returns (bool) {\r\n        if(bytes(a).length != bytes(b).length) {\r\n            return false;\r\n        } else {\r\n            return keccak256(bytes(a)) == keccak256(bytes(b));\r\n        }\r\n    }\r\n\r\n    uint private startTime; \r\n\r\n    constructor() public payable{\r\n        startTime = block.timestamp;\r\n    }\r\n\r\n  function registerUser(string memory enteredCnic, string memory enteredPassword) public {\r\n    // users.push(newUser);\r\n    User memory newUser;\r\n    newUser = mapToUserAssignId(enteredCnic,enteredPassword);\r\n    emailToUsers[newUser.userCnic] = newUser;\r\n    emailToExists[newUser.userCnic] = true;\r\n  }\r\n\r\n  \r\n\r\n  function loginUser(string memory enteredCnic, string memory enteredPassword) public returns (string memory){\r\n\r\n    \r\n\r\n      if((emailToExists[enteredCnic] == true) && hashCompareWithLengthCheck(emailToUsers[enteredCnic].password,enteredPassword)){\r\n          ToReturnUser memory returningUser = mapUserToReturnUser(emailToUsers[enteredCnic]);\r\n        string memory jsonResponse = string(abi.encodePacked( \"{\\\"StatusCode\\\":200,\\\"StatusMessage\\\":\\\"User Logged In\\\",\\\"Data\\\":{\\\"userId\\\":\",'\"' ,returningUser.userId,'\"',\",\\\"userCnic\\\":\", '\"',returningUser.userCnic,'\"', \"}}\"));\r\n            // string memory jsonResponse = string(abi.encodePacked( \"{\\\"StatusCode\\\":200,\\\"StatusMessage\\\":\\\"User Logged In\\\",\\\"Data\\\":{\\\"userId\\\":\\\"\", returningUser.userId, \"\\\",\\\"userCnic\\\":\\\"\", returningUser.userCnic, \"\\\"}}\"));\r\n          \r\n            return jsonResponse;\r\n        //   return res.json({\r\n        //     StatusCode:200,\r\n        //     StatusMessage:\"User Logged In\",\r\n        //     Data:returningUser\r\n        //   });\r\n      }\r\n      else{\r\n        require(emailToExists[enteredCnic] == true && hashCompareWithLengthCheck(emailToUsers[enteredCnic].password,enteredPassword), \"Login User does not exist, Please register\");\r\n      }\r\n  } \r\n \r\n\r\n    \r\n\r\n}",
  "sourcePath": "E:\\flutter\\Flutter-Blockchain-Playground\\mywork\\New folder\\dapp_election_user\\contracts\\LoginSystem.sol",
  "compiler": {
    "name": "solc",
    "version": "0.5.16+commit.9c3226ce.Emscripten.clang"
  },
  "schemaVersion": "3.4.3",
  "updatedAt": "2022-01-12T01:29:57.778Z",
  "networkType": "ethereum",
  "devdoc": {
    "methods": {}
  },
  "userdoc": {
    "methods": {}
  }
}